:100000000C9434000C9451000C9451000C94510049
:100010000C9451000C9451000C9451000C9451001C
:100020000C9451000C9451000C9451000C94A100BC
:100030000C9451000C9451000C9451000C945100FC
:100040000C9451000C9451000C9451000C945100EC
:100050000C9451000C9451000C9451000C945100DC
:100060000C9451000C94510011241FBECFEFD8E026
:10007000DEBFCDBF11E0A0E0B1E0E4E4F4E002C0F7
:1000800005900D92A231B107D9F721E0A2E1B1E0CC
:1000900001C01D92A133B207E1F70E9464000C94E5
:1000A00020020C940000209A229A239A249A259ADE
:1000B000269A279A28980E940C020E94C9010E9441
:1000C0001D010E94B30008950E945300289A0E94C7
:1000D000D60183EC99E00197F1F700C00000809110
:1000E0001201865F80931201843188F30E942801F7
:1000F0008091170190911801A0911901B0911A01F6
:100100004496A11DB11D8093170190931801A093EF
:100110001901B0931A018091130190911401A091DB
:100120001501B09116010196A11DB11D8093130117
:1001300090931401A0931501B0931601109212012F
:10014000C6CF1F920F920FB60F9211248F939F93D9
:1001500085B190E2892785B99F918F910F900FBE4D
:100160000F901F901895F894A89584B7877F84BF47
:10017000E0E6F0E088E1808389E0808310928000EF
:10018000E1E8F0E080818B6080838FE293E09093E0
:10019000890080938800EFE6F0E0808182608083B0
:1001A000789408958091130190911401029714F1AD
:1001B00010921F0110922001109221011092220131
:1001C00010921401109213010E94620181111FC04C
:1001D00080911F0190912001A0912101B0912201F5
:1001E000892B8A2B8B2B99F4A89585B190E18927CF
:1001F00085B9089581E090E0A0E0B0E080931F0110
:1002000090932001A0932101B0932201DDCF809132
:100210001B0190911C01A0911D01B0911E0101963E
:10022000A11DB11D80931B0190931C01A0931D0182
:10023000B0931E0185B18058DBCF10922701109238
:100240002301109224011092250110922601089595
:1002500085B198E0892785B980911701909118019F
:100260008436910551F585B190E4892785B980914F
:10027000230190912401A0912501B09126010897B6
:10028000A105B105D8F08091230190912401A0919E
:100290002501B09126010D97A105B10578F41092C2
:1002A000270110922301109224011092250110922F
:1002B00026011092180110921701089581E0809391
:1002C0002701EFCF8091270108958091230190911C
:1002D0002401A0912501B09126010196A11DB11D17
:1002E0008093230190932401A0932501B0932601CC
:1002F0000895803628F5E82FE295E695E770F0E05E
:10030000EE0FFF1FEA5FFE4F0190F081E02D40816C
:10031000518162817381982F9F7121E030E002C08A
:10032000220F331F9A95E2F7C901330FAA0BBB0BBB
:10033000842B952BA62BB72B80839183A283B38329
:100340000895803628F5E82FE295E695E770F0E00D
:10035000EE0FFF1FE050FF4F0190F081E02D408134
:10036000518162817381982F9F7121E030E002C03A
:10037000220F331F9A95E2F7C901330FAA0BBB0B6B
:10038000842B952BA62BB72B80839183A283B383D9
:1003900008950E940C021092280110922D011092D3
:1003A0002E0110922F0110923001089585B194E032
:1003B000892785B980912D0190912E01A0912F015F
:1003C000B0913001843F9140A105B10581F4609165
:1003D000280160956093280181E00E940E0210922E
:1003E0002D0110922E0110922F0110923001809158
:1003F0002D0190912E01A0912F01B09130010A960C
:10040000A11DB11D80932D0190932E01A0932F016A
:10041000B09330010C946501219A089545B121E013
:1004200030E0F90102C0EE0FFF1F8A95E2F7CF011D
:10043000662319F0842B85B9089580958423FBCF1A
:04044000F894FFCF5E
:1004440080E284E288E200E104E108E1230026007E
:0204540029007D
:00000001FF
