:100000000C9434000C9446000C9446000C9446006A
:100010000C9446000C9446000C9446000C94460048
:100020000C9446000C9446000C9446000C945F001F
:100030000C9446000C9446000C9446000C94460028
:100040000C9446000C9446000C9446000C94460018
:100050000C9446000C9446000C9446000C94460008
:100060000C9446000C94460011241FBECFEFD8E03C
:10007000DEBFCDBF21E0A0E0B1E001C01D92AA30FB
:10008000B207E1F70E9483000C94E5010C94000094
:1000900010928000E1E8F0E0108280818860808327
:1000A00080E293E09093890080938800AFE6B0E00F
:1000B0008C9182608C9380818360808308951F92ED
:1000C0000F920FB60F9211242F933F934F935F938C
:1000D0006F937F938F939F93AF93BF93EF93FF9310
:1000E0000E941F01FF91EF91BF91AF919F918F915E
:1000F0007F916F915F914F913F912F910F900FBE24
:100100000F901F9018950E94890141E060E081E006
:100110000E948F010E9446010E94B5000E941101B9
:100120000E94480081EE94E00197F1F700C00000C2
:100130000E94560181EE94E00197F1F700C00000A3
:100140000E94560181EE94E00197F1F700C0000093
:100150000E94560181EE94E00197F1F700C0000083
:100160000E9456010E94C600DDCF10920401109239
:1001700000011092010110920201109203011092ED
:100180000501109208010E948901089541E064E090
:1001900082E00E948F0189EF90E00197F1F700C0A3
:1001A000000040E064E082E00E948F018091000145
:1001B00090910101A0910201B09103010196A11D4E
:1001C000B11D8093000190930101A0930201B093AF
:1001D00003010597A105B10588F0809104018850BD
:1001E000853090F4109205011092040110920001E4
:1001F00010920101109202011092030180910801F6
:100200008F5F80930801089581E080930501ECCF12
:10021000809105010895809104018F5F809304010E
:100220000895F89484B7877F84BFA895E0E6F0E04E
:100230008081886180838AE08083789408958091AA
:100240000801823068F488E198E00FB6F894A89528
:10025000809360000FBE9093600010920801089593
:100260000E9408018111EFCF41E065E081E00E942A
:100270008F0189EF90E00197F1F700C0000040E0A6
:1002800065E081E00E948F01A895E7CF0E94890177
:1002900081E08093090110920701109206014091BC
:1002A000090160E083E00E948F01089580910601BA
:1002B000909107010596909307018093060181397B
:1002C000914088F080910901811120C081E08093E4
:1002D00009014091090160E083E00E948F011092C2
:1002E00007011092060141E060E082E00E948F0168
:1002F00089EF90E00197F1F700C0000040E060E076
:1003000082E00E948F010E940B0108951092090162
:10031000E0CF209A259A389A3C9A509A08958530D1
:1003200040F4693030F48230F1F08330A9F181304B
:1003300009F00895413061F025B181E090E002C0FC
:10034000880F991F6A95E2F78095822385B90895F1
:1003500085B121E030E002C0220F331F6A95E2F739
:10036000822B85B90895413061F028B181E090E099
:1003700002C0880F991F6A95E2F78095822388B999
:10038000089588B121E030E002C0220F331F6A9542
:10039000E2F7822B88B90895413061F02BB181E0FA
:1003A00090E002C0880F991F6A95E2F7809582233A
:1003B0008BB9BFCF8BB121E030E002C0220F331FD9
:0E03C0006A95E2F7822B8BB90895F894FFCF6F
:00000001FF
